:040388007F057E006F
:10038C00EF4E600F7D027CEFDCFEDDFCEF1F70F0AA
:03039C001E80EDD3
:01039F00223B
:10000E001203B61204248F28E528B4010CE52770DC
:10001E00047F0180027F008F27E528B40207E4F5F4
:10002E0025F524F526E52864037027E525FD7C00DB
:10003E00E4FF120353120388E524FD7C007F0112B6
:10004E000353120388E526FD7C007F021203531230
:10005E000388E528B40415E4FF1202C98F257F0139
:10006E001202C98F247F021202C98F26E52575F070
:10007E000A84FD7C007F01120415E52575F00A84C3
:10008E00E5F0FD7C007F021204157D0B7C007F03E2
:10009E00120415E52475F00A84FD7C007F04120419
:1000AE0015E52475F00A84E5F0FD7C007F05120449
:1000BE00157D0B7C007F06120415E52675F00A846B
:1000CE00FD7C007F07120415E52675F00A84E5F025
:0B00DE00FD7C007F08120415020011D9
:1002F100E52760220526E526C394644019E4F52626
:100301000524E524943C400EE4F5240525E52594D7
:070311003C4003E4F5252246
:03000B000200E907
:1000E900C0E0C0F0C083C082C0D075D000C000C0DD
:0D00F90001C002C003C004C005C006C0075E
:10010600758A18758CFC051FE51F7002051EC394C1
:1001160014E51E94004009751E00751F0012026743
:100126000521E52170020520C39402E520940040D4
:100136000975200075210012036F0523E52370025F
:100146000522C3940AE5229400400975220075230E
:04015600001202F1A0
:10015A00D007D006D005D004D003D002D001D000F9
:0B016A00D0D0D082D083D0F0D0E032A3
:1003B600758901C28DD28C758CFC758A18D2A9D22A
:0403C600AFC2B922E7
:1003DE005389F0438901E4F58CF58AC28DC28C22D3
:0B03EE00AD07AC068C8CAF058F8A2297
:09040300AF8CEFFEAD8AEDFF2283
:06041E00EF24FF928C2286
:09040C00D2A1D2A0C2A0C2A1221B
:07000300C2A0D2A1D2A0228D
:0202A000AD07A8
:1002A200E4FB74807E00A803088006CEA2E713CE8A
:1002B20013D8F8FFEDF582EF558224FF92A0D2A168
:0602C200C2A10BBB08DC29
:0102C8002213
:10031800E4FFD2A0FED2A130A00D7480A806088008
:0D03280002C313D8FC4207C2A10EBE08E8B4
:0103350022A5
:0A03F900EF24FF92A0D2A1C2A122BE
:0803CA0012040C7FA01202A036
:0B03D200D2A0D2A1A2A0E433FFC2A180
:0103DD0022FD
:100353008C2C8D2DAA071203CAAF021202A012031E
:0C036300D2AF2D1202A01203D202000340
:0202C900AC0780
:1002CB001203CAAF041202A01203D212040C7FA1B4
:1002DB001202A01203D2120318AE077F011203F908
:0502EB00120003AF0644
:0102F00022EB
:100336000909000A0A0A0A0A0A0A0A0C123F065B97
:0C0346004F666D7D077F6F0040010801CD
:10020100E4F590EF14B40800505490021975F0030E
:10021100A4C58325F0C583730202310202350202AF
:100221003902023D0202410202490202510202590F
:10023100D2A4800ED2A48012D2A48016D2A4801A95
:10024100C2A4D2A3D2A28016C2A4D2A3C2A2800EFB
:10025100C2A4C2A3D2A28006C2A4C2A3C2A2741223
:060261002DF8E6F59022E5
:10036F0074092508F8E6FDAF081202010508E50833
:08037F00C39409400375080155
:010387002253
:09041500AE0574092FF8A60622B9
:1003A000E4FF20B1010F20B0027F0220B2027F03E0
:0503B00020B3027F04F0
:0103B5002225
:1002670085292A1203A08F29E52AB40107E52970F9
:1002770003752B01E52AB40207E5297003752B02E4
:10028700E52AB40307E5297003752B03E52AB404AF
:0802970007E5297003752B0433
:01029F00223C
:05042400E4AF2BF52BF5
:0104290022B0
:0300000002017585
:0C017500787FE4F6D8FD75812D0201BCF6
:1001810002000EE493A3F8E493A34003F68001F286
:1001910008DFF48029E493A3F85407240CC8C3337F
:1001A100C4540F4420C8834004F456800146F6DF4E
:1001B100E4800B0102040810204080900336E47EA5
:1001C100019360BCA3FF543F30E509541FFEE49343
:1001D100A360010ECF54C025E060A840B8E493A30A
:1001E100FAE493A3F8E493A3C8C582C8CAC583CA35
:1001F100F0A3C8C582C8CAC583CADFE9DEE780BEED
:0103520000AA
:00000001FF
