:0F04370070617373776F7264004F4B004E4F000C
:04046900021704D2A0
:1000FF007508037509E8120423750E04AB18AA17C7
:10010F007D017F011203D87BFF7A0479377D057F4C
:10011F000180631200038F19E51960F7D3940A5019
:10012F00F2C3E5149404E51394005028AE15AF16EE
:10013F007C007D0A1201C68E158F16E51975F00A1F
:10014F0084E5F02516F516E43515F5150514E514B7
:10015F0070020513750E04AB16AA157D017F0212EE
:10016F0003D8E516B51814E515B5170F7BFF7A04FC
:10017F0079407D0A7F0212039780987BFF7A04797A
:0A018F00437D0A7F02120397808966
:0403F5007F147E00F3
:1003F900EF4E600F7D027CEFDCFEDDFCEF1F70F03D
:030409001E80ED65
:01040C0022CD
:10000300E4FB7590FFC29320970E7F14FE1203F951
:100013003097FD1203F57B0120960B1203F5309602
:10002300FD1203F57B0520950B1203F53095FD12A8
:1000330003F57B0920940B1203F53094FD1203F5AD
:100043007B0D7590FFC29220970B1203F53097FD3D
:100053001203F57B0220960B1203F53096FD120373
:10006300F57B0620950B1203F53095FD1203F57B06
:100073000A20940B1203F53094FD1203F57B0E75E1
:1000830090FFC29120970B1203F53097FD1203F5F1
:100093007B0320960B1203F53096FD1203F57B07C5
:1000A30020950B1203F53095FD1203F57B0B20947D
:1000B3000B1203F53094FD1203F57B0F7590FFC20D
:1000C3009020970B1203F53097FD1203F57B042064
:1000D300960B1203F53096FD1203F57B0820950B62
:1000E3001203F53095FD1203F57B0C20940B1203DC
:0B00F300F53094FD1203F57B10AF0305
:0100FE0022DF
:06044600C2B18FA0D2B28A
:08044C007F027EEFDEFEDFFC03
:010454002285
:0A045500C2B0120446C2B202044C09
:1003BA00CFCDCFCECCCE1201D87C007D0A1201D887
:0403CA00ED2430FFEF
:0A03CE00D2B0120446C2B202044C81
:10040D00AE07BE0104ED148006BE0209ED243F4483
:06041D0080FF12045522CD
:100423007F381204557F0C1204557F061204557F42
:040433000102045569
:0A045F00AC0312040DAF040203CE3B
:060397008B0A8A0B890CA1
:10039D0012040DE4FDAB0AAA0BA90C8D8275830026
:0C03AD00120199FF60061203CE0D80E9DA
:0103B9002221
:0C0364007F0AEA24FFFDE434FFFC7E0069
:080370008E0F8F108C118D120D
:100378007F017E00E4FBEBC39512E5116480F874FD
:0E0388008098500AAC0FAD101201C60B80E831
:010396002244
:0403D8008A0C8B0DF3
:1003DC0012040DAA0EEAD39400400D120364AC0C67
:0803EC00AD0D1203BA1A80EDF9
:0103F40022E6
:1002B90012040DC3EA64809480400B7F2B1203CE95
:1002C9008A1F8B20800E7F2D1203CEC3E49BF5205D
:1002D900E49AF51FAA1EEAD39400400D120364ACF8
:0902E9001FAD201203BA1A80EDCA
:0102F20022E9
:0402F3008A238B24AB
:1002F70012040DAA25EAD3940040297F1012036641
:10030700AC23AD24CFCDCFCECCCE1201D8EF540F36
:10031700FEC3940AEE5004243080022437FF1203F0
:04032700CE1A80D199
:01032B0022AF
:04032C008A288B2967
:1003300012040DAA2AEAD394004028EA24FFFDE41F
:1003400034FFFC7F027E00120370AC28AD29CFCDB4
:10035000CFCECCCE1201D8EF54012430FF1203CE01
:030360001A80D22E
:010363002277
:0300000002022DCC
:0C022D00787FE4F6D8FD75812A02027487
:10019900BB010CE58229F582E5833AF583E022501B
:1001A90006E92582F8E622BBFE06E92582F8E22265
:0D01B900E58229F582E5833AF583E493227F
:1001C600EF8DF0A4A8F0CF8CF0A428CE8DF0A42E4D
:0201D600FE2207
:1001D800BC000BBE0029EF8DF084FFADF022E4CC0B
:1001E800F875F008EF2FFFEE33FEEC33FCEE9DECD4
:1001F800984005FCEE9DFE0FD5F0E9E4CEFD22ED1A
:10020800F8F5F0EE8420D21CFEADF075F008EF2F63
:10021800FFED33FD4007985006D5F0F222C398FD54
:050228000FD5F0EA22F1
:100239000200FFE493A3F8E493A34003F68001F2DC
:1002490008DFF48029E493A3F85407240CC8C333C6
:10025900C4540F4420C8834004F456800146F6DF95
:10026900E4800B0102040810204080900469E47EB8
:10027900019360BCA3FF543F30E509541FFEE4938A
:10028900A360010ECF54C025E060A840B8E493A351
:10029900FAE493A3F8E493A3C8C582C8CAC583CA7C
:1002A900F0A3C8C582C8CAC583CADFE9DEE780BE34
:01046D00008E
:00000001FF
