:1000030053877F75985053890F438920758BFD75EE
:0B0013008DFDC2ABD28ED2AFD2AC226A
:10028F001200031202687B667D017F021202AC80AE
:01029F00F569
:0300230002014C8B
:10014C00C0E0C0F0C083C082C0D075D000C000C079
:10015C0001C002C003C004C005C006C007D39298FA
:10016C008599A0AB997D017F021202ACC298D00791
:10017C00D006D005D004D003D002D001D000D0D00E
:09018C00D082D083D0F0D0E03223
:10022300C290C2918FA0D2927F017E00120253C26C
:08023300927F017E00020253DC
:10023B00D290C2918FA0D2927F017E00120253C244
:08024B00927F017E00020253C4
:100268007F381202237F0C1202237F061202237F9B
:04027800010202235A
:10027C008D22E522BF0103148002243F4480FF122B
:03028C0002232228
:0A02AC008B2112027CAF2102023BFD
:0601FD008B178A18891916
:1002030012027CE4F51AAB17AA18A919851A82758C
:0F0213008300120026FF600712023B051A80E7E6
:0102220022B9
:0B01CB0024FFFDE434FFFC7F0A7E00EF
:0801D6008E1B8F1C8C1D8D1E79
:1001DE007F017E00E4FBEBC3951EE51D6480F87481
:0E01EE008098500AAC1BAD1C1200530B80E829
:0101FC0022E0
:040195008A138B142A
:1001990012027C851516E516D394004024E5161243
:1001A90001CBAC13AD14CFCDCFCECCCE1200657C34
:1001B900007D0A120065ED2430FF12023B151680FE
:0101C900D560
:0101CA002212
:0400F0008A0A8B0BE2
:1000F40012027CC3E50A64809480400D7F2B1202B7
:100104003B850A0E850B0F80107F2D12023BC3E442
:10011400950BF50FE4950AF50E850C0DE50DD394BA
:10012400004024E50D1201CBAC0EAD0FCFCDCFCEE8
:10013400CCCE1200BA7C007D0A1200BAED2430FF46
:0701440012023B150D80D5EE
:01014B002291
:10025300EF1FAC0670011E4C600A7D027CEFDCFED2
:04026300DDFC80EC52
:010267002274
:030000000202A059
:0C02A000787FE4F6D8FD75812202028F01
:10002600BB010CE58229F582E5833AF583E022508F
:1000360006E92582F8E622BBFE06E92582F8E222D9
:0D004600E58229F582E5833AF583E49322F3
:10005300EF8DF0A4A8F0CF8CF0A428CE8DF0A42EC1
:02006300FE227B
:10006500BC000BBE0029EF8DF084FFADF022E4CC7F
:10007500F875F008EF2FFFEE33FEEC33FCEE9DEC48
:10008500984005FCEE9DFE0FD5F0E9E4CEFD22ED8E
:10009500F8F5F0EE8420D21CFEADF075F008EF2FD8
:1000A500FFED33FD4007985006D5F0F222C398FDC9
:0500B5000FD5F0EA2266
:1000BA00C2D5EC30E709B2D5E4C39DFDE49CFCEE61
:1000CA0030E715B2D5E4C39FFFE49EFE120065C374
:1000DA00E49DFDE49CFC800312006530D507C3E46F
:0600EA009FFFE49EFE22D0
:00000001FF
