:1008EA002025080000000000FF080808FF000E1578
:1008FA0015150900FE010200FE0102001C22222237
:08090A001C00FB0000000000CE
:0208BD00AD0785
:1008BF00E4FB74807E00A803088006CEA2E713CE67
:1008CF0013D8F8FFEDF582EF558224FF92B4D2B61C
:0A08DF00C2B60BBB08DCD2B5C2B5EF
:0108E90022EC
:10093700EF4E600F7D027CEFDCFEDDFCEF1F70F0F9
:030947001E80ED22
:01094A00228A
:10091300AE05AC07AF061208BDAF047480A8070884
:100923008002C313D8FCF4F5807F017E00120937DF
:040933007580FF22AA
:10088C00E4F9F52DC2B6C2B5E4FAAF02EA292408A0
:10089C00F8E6FD1209130ABA08F0052DE52DD394DC
:1008AC000A40E5E4F52D09E9D3942840DBE4F9800E
:0108BC00D764
:03000000020800F3
:0C080000787FE4F6D8FD75812D020847D2
:10080C0002088CE493A3F8E493A34003F68001F26E
:10081C0008DFF48029E493A3F85407240CC8C333ED
:10082C00C4540F4420C8834004F456800146F6DFBC
:10083C00E4800B01020408102040809008EAE47E5A
:10084C00019360BCA3FF543F30E509541FFEE493B1
:10085C00A360010ECF54C025E060A840B8E493A378
:10086C00FAE493A3F8E493A3C8C582C8CAC583CAA3
:10087C00F0A3C8C582C8CAC583CADFE9DEE780BE5B
:0109120000E4
:00000001FF
