:0C01C7000A0B3F065B4F666D7D077F6FE3
:04019A007F147E0050
:10019E00EF1FAC0670011E4C600A7D027CEFDCFE88
:0401AE00DDFC80EC08
:0101B200222A
:10009A00EF14B4080050549000AF75F003A4C58360
:1000AA0025F0C583730200C70200CB0200CF02000D
:1000BA00D30200D70200DF0200E70200EFD2A480D9
:1000CA000ED2A48012D2A48016D2A4801AC2A4D2BC
:1000DA00A3D2A28016C2A4D2A3C2A2800EC2A4C274
:1000EA00A3D2A28006C2A4C2A3C2A2740B2DF8E6B0
:0900FA00F5907F017E0002019ED9
:10010300E4FB20B10E7F14FE12019E30B1FD1201FB
:100113009A7B0120900B12019A3090FD12019A7B79
:100123000220920B12019A3092FD12019A7B032056
:0F013300930B12019A3093FD12019A7B04AF03D4
:01014200229A
:1001B300758901758A9C758CFFC28DD28CD2A9D2A8
:0401C300AFC2B922EC
:100143001201B3E4FDFC7F0112009A1201038F092F
:10015300E509B401080515531503E4F509E515FD93
:0C0163007C007F0112009A12019A80DFDC
:03000B0002016F80
:10016F00C0E0C0F0C0D0758A9C758CFF050AE50A07
:10017F0075F0648485F00AE50AC395085004D280AF
:0B018F008002C280D0D0D0F0D0E0325F
:0300000002000EED
:0C000E00787FE4F6D8FD758115020055DE
:10001A00020143E493A3F8E493A34003F68001F2B8
:10002A0008DFF48029E493A3F85407240CC8C333E7
:10003A00C4540F4420C8834004F456800146F6DFB6
:10004A00E4800B01020408102040809001C7E47E7E
:10005A00019360BCA3FF543F30E509541FFEE493AB
:10006A00A360010ECF54C025E060A840B8E493A372
:10007A00FAE493A3F8E493A3C8C582C8CAC583CA9D
:10008A00F0A3C8C582C8CAC583CADFE9DEE780BE55
:0101D300002B
:00000001FF
