:02083E00AD0704
:10084000E4FB74807E00A803088006CEA2E713CEE6
:1008500013D8F8FFEDF582EF558224FF92B4D2B69B
:0A086000C2B60BBB08DCD2B5C2B56E
:01086A00226B
:10088F00EF4E600F7D027CEFDCFEDDFCEF1F70F0A2
:03089F001E80EDCB
:0108A2002233
:10086B00AE05AC07AF0612083EAF047480A80708AC
:10087B008002C313D8FCF4F5807F017E0012088F31
:04088B007580FF2253
:10080000C2B6C2B57D3CE4FF12086B7D427F011287
:10081000086B7DA97F0212086B7D857F0312086B30
:100820007D857F0412086B7DA97F0512086B7D42D0
:0E0830007F0612086B7D3C7F0712086B80C6A6
:030000000208A350
:0C08A300787FE4F6D8FD7581070208009C
:00000001FF
