:1007F700EF1FAC0670011E4C600A7D027CEFDCFE29
:04080700DDFC80ECA8
:01080B0022CA
:1007C700C2B0C2B18FA0D2B27F017E001207F7C2BA
:0807D700B27F017E000207F76A
:1007DF00D2B0C2B18FA0D2B27F017E001207F7C292
:0807EF00B27F017E000207F752
:10080C007F381207C77F0C1207C77F061207C77FF6
:04081C00010207C707
:100834008D1AE51ABF0103148002243F4480FF127D
:0308440007C722C1
:0A0874008B20120834AF200207DFCA
:0607A1008B138A14891578
:1007A700120834E4F516AB13AA14A9158516827539
:0F07B7008300120389FF60071207DF051680E732
:0107C6002210
:08077A008E1A8F1B8C1C8D1DD3
:100782007F017E00E4FBEBC3951DE51C6480F874D9
:0E0792008098500AAC1AAD1B1203B60B80E81B
:0107A0002236
:040700008A168B17B3
:10070400120834851819E519D39400402FE51924EB
:10071400FFFDE434FFFC7F0A7E0012077AAC16ADBD
:1007240017CFCDCFCECCCE1203C87C007D0A1203E6
:0C073400C8ED2430FF1207DF151980CA41
:010740002296
:10059F00E4F5132091137F14FE1207F73091FD7FBE
:1005AF00147E001207F77513012090147F147E003C
:1005BF001207F73090FD7F147E001207F7751302B4
:1005CF002092147F147E001207F73092FD7F147E65
:1005DF00001207F77513032093147F147E00120780
:1005EF00F73093FD7F147E001207F7751304AF13D6
:0105FF0022D9
:10082000758901C28DD28C758CFC758A18D2A9D2BB
:04083000AFC2B92278
:100859005389F0438901E4F58CF58AC28DC28C2253
:0B086900AD07AC068C8CAF058F8A2217
:09088800AF8CEFFEAD8AEDFF22FA
:06000300EF24FF928C22A5
:1008470020202D20202D20200020203A20203A2073
:0208570020007F
:10065D0012080C1208911208207BFF7A0879477D49
:10066D00017F011207A17BFF7A0879507D017F027E
:10067D001207A112029F12059F8F1FE51FB40111D2
:10068D00E51E7005751E018008E51EB40103E4F535
:10069D001EE51E1460080470DD12053680D8AF1FEC
:0506AD0012000E80D1D7
:030896002020001F
:09087E00070B1703150A1D1E02E9
:05089100C2B5C2B62251
:0606000025F0FDEC3EFCBC
:060606008C138D14AB07FC
:10060C00D2B5E4FD74017E00A805088005C333CE85
:10061C0033CED8F9FFEBF582EF558224FF92B4D29A
:10062C00B6C2B60DBD08DDE4FD74017E00A8050858
:10063C008005C333CE33CED8F9FFE5135EFEE51447
:10064C005F4E24FF92B4D2B6C2B60DBD08DBC2B564
:01065C00227B
:0206B200AD0792
:1006B400E4F9430501D2B5FB74017E00A803088068
:1006C40005C333CE33CED8F9FFEDF582EF5582243E
:1006D400FF92B4C2B6D2B60BBB08DDE4FBD2B6C2FD
:1006E400B630B40D7401A803088002C333D8FC42A9
:0B06F400010BBB08E8C2B5C2B4AF01A7
:0106FF0022D8
:10029F00E4FDFC7F8E120606E50B75F00A8475F0FF
:1002AF0010A4FFAEF0E50B75F00A84EF7F8C1206F9
:1002BF0000E50C75F00A8475F010A4FFAEF0E50CA4
:1002CF0075F00A847C00EF7F88120600E50D75F04B
:1002DF000A8475F010A4FFAEF0E50D75F00A847C6A
:1002EF0000EF25F0FDEC3EFC7F86120606E50E754D
:1002FF00F00A8475F010A4FFAEF0E50E75F00A84D5
:10030F007C00EF25F0FDEC3EFC7F84120606E50F26
:10031F0075F00A8475F010A4FFAEF0E50F75F00AC2
:10032F00847C00EF25F0FDEC3EFC7F82120606E593
:10033F001075F00A8475F010A4FFAEF0E51075F09B
:10034F000A847C00EF25F0FDEC3EFC7F8012060650
:10035F00E51175F00A8475F010A4FFAEF0E5117584
:10036F00F00A847C00EF25F0FDEC3EFC7F8A12063C
:0A037F00067D807C007F8E020606DA
:10041D007F8C1206B2EFC4540F75F00AA4FEEF5490
:10042D000F2EF50B7F881206B2EFC4540F75F00A2C
:10043D00A4FEEF540F2EF50C7F861206B2EFC454B6
:10044D000F75F00AA4FEEF540F2EF50D7F841206E2
:10045D00B2EFC4540F75F00AA4FEEF540F2EF50E33
:10046D007F821206B2EFC4540F75F00AA4FEEF544A
:10047D000F2EF50F7F801206B2EFC4540F75F00AE0
:10048D00A4FEEF540F2EF5107F8A1206B2EFC4545E
:0C049D000F75F00AA4FEEF540F2EF511AD
:0104A9002230
:1005360012041DE50BFB7A007518027D017C007F15
:1005460001120700E50CFB7A007518027D047C0099
:100556007F01120700E50DFB7A007518027D077C06
:10056600007F01120700E50EFB7A007518027D0177
:100576007C007F02120700E50FFB7A007518027DEA
:10058600047C007F02120700E510FB7A0075180252
:090596007D077C007F02020700D2
:10000E00BF020B0512E51275F0068485F012EF643F
:10001E000360030200CC740B2512F806E50BD39493
:10002E00634003E4F50BE50CD3940C4003750C010F
:10003E00E50C64016023E50C6403601DE50C6405AA
:10004E006017E50C64076011E50C6408600BE50CA5
:10005E00640A6005E50CB40C09E50DD3941F40400D
:10006E00803BE50C64046011E50C6406600BE50C46
:10007E0064096005E50CB40B09E50DD3941E402010
:10008E00801BE50CB40219E50B54037009E50DD382
:10009E00941D400C8007E50DD3941C4003750D0193
:1000AE00E50ED394174003E4F50EE50FD3943B40D1
:1000BE0003E4F50FE510D3943B4003E4F510EF6431
:1000CE000460030201A5740B2512F816E50BC39408
:1000DE00005003750B63E50CC394015003750C0CB3
:1000EE00E50C64016023E50C6403601DE50C6405FA
:1000FE006017E50C64076011E50C6408600BE50CF5
:10010E00640A6005E50CB40C13E50DC394015003AD
:10011E00750D1FE50DD3941F405F805AE50C6404E6
:10012E006011E50C6406600BE50C64096005E50CD6
:10013E00B40B13E50DC394015003750D1EE50DD3DD
:10014E00941E40358030E50C6402702DE50B54038F
:10015E007013E50DC394015003750D1DE50DD39479
:10016E001D40168011E50DC394015003750D1CE55D
:10017E000DD3941C4003750D01E50EC3940050037E
:10018E00750E17E50FC394005003750F3BE510C3B2
:10019E009400500375103BE5127014E50AB4010F7C
:1001AE007BFF7A0879967D017F011207A18011E508
:1001BE000BFB7A007518027D017C007F011207008F
:1001CE00E512B40114E50AB4010F7BFF7A087996A3
:1001DE007D047F011207A18011E50CFB7A007518D2
:1001EE00027D047C007F01120700E512B40214E5C3
:1001FE000AB4010F7BFF7A0879967D077F011207FB
:10020E00A18011E50DFB7A007518027D077C007F39
:10021E0001120700E512B40314E50AB4010F7BFFC7
:10022E007A0879967D017F021207A18011E50EFBF7
:10023E007A007518027D017C007F02120700E5121C
:10024E00B40414E50AB4010F7BFF7A0879967D0495
:10025E007F021207A18011E50FFB7A007518027D4F
:10026E00047C007F02120700E512B40512E50AB401
:10027E00010D7BFF7A0879967D077F020207A1E5C3
:10028E0010FB7A007518027D077C007F02120700B2
:01029E00223D
:03000B00020741A8
:09074100C0E0C0D075D000C00773
:10074A00758A18758CFC0509E50970020508C394B9
:10075A00F4E50894014012750800750900E50A706D
:09076A00047F0180027F008F0A68
:07077300D007D0D0D0E03226
:030000000204AA4D
:0C04AA00787FE4F6D8FD7581200204F193
:10038900BB010CE58229F582E5833AF583E0225029
:1003990006E92582F8E622BBFE06E92582F8E22273
:0D03A900E58229F582E5833AF583E493228D
:1003B600EF8DF0A4A8F0CF8CF0A428CE8DF0A42E5B
:0203C600FE2215
:1003C800BC000BBE0029EF8DF084FFADF022E4CC19
:1003D800F875F008EF2FFFEE33FEEC33FCEE9DECE2
:1003E800984005FCEE9DFE0FD5F0E9E4CEFD22ED28
:1003F800F8F5F0EE8420D21CFEADF075F008EF2F72
:10040800FFED33FD4007985006D5F0F222C398FD62
:050418000FD5F0EA22FF
:1004B60002065DE493A3F8E493A34003F68001F2F9
:1004C60008DFF48029E493A3F85407240CC8C33347
:1004D600C4540F4420C8834004F456800146F6DF16
:1004E600E4800B010204081020408090087EE47E20
:1004F600019360BCA3FF543F30E509541FFEE4930B
:10050600A360010ECF54C025E060A840B8E493A3D1
:10051600FAE493A3F8E493A3C8C582C8CAC583CAFC
:10052600F0A3C8C582C8CAC583CADFE9DEE780BEB4
:010887000070
:00000001FF
